{
  "contractName": "HelloBlockchain",
  "abi": [
    {
      "inputs": [
        {
          "internalType": "string",
          "name": "message",
          "type": "string"
        }
      ],
      "stateMutability": "nonpayable",
      "type": "constructor"
    },
    {
      "anonymous": false,
      "inputs": [
        {
          "indexed": true,
          "internalType": "address",
          "name": "requestor",
          "type": "address"
        },
        {
          "indexed": false,
          "internalType": "string",
          "name": "requestMessage",
          "type": "string"
        },
        {
          "indexed": false,
          "internalType": "enum HelloBlockchain.StateType",
          "name": "state",
          "type": "uint8"
        }
      ],
      "name": "RequestSent",
      "type": "event"
    },
    {
      "inputs": [],
      "name": "RequestMessage",
      "outputs": [
        {
          "internalType": "string",
          "name": "",
          "type": "string"
        }
      ],
      "stateMutability": "view",
      "type": "function",
      "constant": true
    },
    {
      "inputs": [],
      "name": "Requestor",
      "outputs": [
        {
          "internalType": "address",
          "name": "",
          "type": "address"
        }
      ],
      "stateMutability": "view",
      "type": "function",
      "constant": true
    },
    {
      "inputs": [],
      "name": "State",
      "outputs": [
        {
          "internalType": "enum HelloBlockchain.StateType",
          "name": "",
          "type": "uint8"
        }
      ],
      "stateMutability": "view",
      "type": "function",
      "constant": true
    },
    {
      "inputs": [
        {
          "internalType": "string",
          "name": "requestMessage",
          "type": "string"
        }
      ],
      "name": "SendRequest",
      "outputs": [],
      "stateMutability": "nonpayable",
      "type": "function"
    }
  ],
  "bytecode": "0x60806040523480156200001157600080fd5b5060405162000b3138038062000b31833981810160405281019062000037919062000312565b33600060016101000a81548173ffffffffffffffffffffffffffffffffffffffff021916908373ffffffffffffffffffffffffffffffffffffffff160217905550806001908051906020019062000090929190620000c5565b5060008060006101000a81548160ff02191690836000811115620000b957620000b862000363565b5b021790555050620003f6565b828054620000d390620003c1565b90600052602060002090601f016020900481019282620000f7576000855562000143565b82601f106200011257805160ff191683800117855562000143565b8280016001018555821562000143579182015b828111156200014257825182559160200191906001019062000125565b5b50905062000152919062000156565b5090565b5b808211156200017157600081600090555060010162000157565b5090565b6000604051905090565b600080fd5b600080fd5b600080fd5b600080fd5b6000601f19601f8301169050919050565b7f4e487b7100000000000000000000000000000000000000000000000000000000600052604160045260246000fd5b620001de8262000193565b810181811067ffffffffffffffff821117156200020057620001ff620001a4565b5b80604052505050565b60006200021562000175565b9050620002238282620001d3565b919050565b600067ffffffffffffffff821115620002465762000245620001a4565b5b620002518262000193565b9050602081019050919050565b60005b838110156200027e57808201518184015260208101905062000261565b838111156200028e576000848401525b50505050565b6000620002ab620002a58462000228565b62000209565b905082815260208101848484011115620002ca57620002c96200018e565b5b620002d78482856200025e565b509392505050565b600082601f830112620002f757620002f662000189565b5b81516200030984826020860162000294565b91505092915050565b6000602082840312156200032b576200032a6200017f565b5b600082015167ffffffffffffffff8111156200034c576200034b62000184565b5b6200035a84828501620002df565b91505092915050565b7f4e487b7100000000000000000000000000000000000000000000000000000000600052602160045260246000fd5b7f4e487b7100000000000000000000000000000000000000000000000000000000600052602260045260246000fd5b60006002820490506001821680620003da57607f821691505b602082108103620003f057620003ef62000392565b5b50919050565b61072b80620004066000396000f3fe608060405234801561001057600080fd5b506004361061004c5760003560e01c8063a7a1ba1514610051578063e750e2da1461006d578063f1b6dccd1461008b578063fd05116c146100a9575b600080fd5b61006b60048036038101906100669190610484565b6100c7565b005b6100756101c2565b6040516100829190610555565b60405180910390f35b610093610250565b6040516100a091906105ee565b60405180910390f35b6100b1610261565b6040516100be919061064a565b60405180910390f35b3373ffffffffffffffffffffffffffffffffffffffff16600060019054906101000a900473ffffffffffffffffffffffffffffffffffffffff1673ffffffffffffffffffffffffffffffffffffffff161461012157600080fd5b8060019080519060200190610137929190610287565b5060008060006101000a81548160ff0219169083600081111561015d5761015c610577565b5b02179055503373ffffffffffffffffffffffffffffffffffffffff167f9745a97dc7c3e0c951033cb85277537ccd95574879a77bea0e1cf90a7d7223be8260008054906101000a900460ff166040516101b7929190610665565b60405180910390a250565b600180546101cf906106c4565b80601f01602080910402602001604051908101604052809291908181526020018280546101fb906106c4565b80156102485780601f1061021d57610100808354040283529160200191610248565b820191906000526020600020905b81548152906001019060200180831161022b57829003601f168201915b505050505081565b60008054906101000a900460ff1681565b600060019054906101000a900473ffffffffffffffffffffffffffffffffffffffff1681565b828054610293906106c4565b90600052602060002090601f0160209004810192826102b557600085556102fc565b82601f106102ce57805160ff19168380011785556102fc565b828001600101855582156102fc579182015b828111156102fb5782518255916020019190600101906102e0565b5b509050610309919061030d565b5090565b5b8082111561032657600081600090555060010161030e565b5090565b6000604051905090565b600080fd5b600080fd5b600080fd5b600080fd5b6000601f19601f8301169050919050565b7f4e487b7100000000000000000000000000000000000000000000000000000000600052604160045260246000fd5b61039182610348565b810181811067ffffffffffffffff821117156103b0576103af610359565b5b80604052505050565b60006103c361032a565b90506103cf8282610388565b919050565b600067ffffffffffffffff8211156103ef576103ee610359565b5b6103f882610348565b9050602081019050919050565b82818337600083830152505050565b6000610427610422846103d4565b6103b9565b90508281526020810184848401111561044357610442610343565b5b61044e848285610405565b509392505050565b600082601f83011261046b5761046a61033e565b5b813561047b848260208601610414565b91505092915050565b60006020828403121561049a57610499610334565b5b600082013567ffffffffffffffff8111156104b8576104b7610339565b5b6104c484828501610456565b91505092915050565b600081519050919050565b600082825260208201905092915050565b60005b838110156105075780820151818401526020810190506104ec565b83811115610516576000848401525b50505050565b6000610527826104cd565b61053181856104d8565b93506105418185602086016104e9565b61054a81610348565b840191505092915050565b6000602082019050818103600083015261056f818461051c565b905092915050565b7f4e487b7100000000000000000000000000000000000000000000000000000000600052602160045260246000fd5b600181106105b7576105b6610577565b5b50565b60008190506105c8826105a6565b919050565b60006105d8826105ba565b9050919050565b6105e8816105cd565b82525050565b600060208201905061060360008301846105df565b92915050565b600073ffffffffffffffffffffffffffffffffffffffff82169050919050565b600061063482610609565b9050919050565b61064481610629565b82525050565b600060208201905061065f600083018461063b565b92915050565b6000604082019050818103600083015261067f818561051c565b905061068e60208301846105df565b9392505050565b7f4e487b7100000000000000000000000000000000000000000000000000000000600052602260045260246000fd5b600060028204905060018216806106dc57607f821691505b6020821081036106ef576106ee610695565b5b5091905056fea26469706673582212203807087504695288a201305fdfda272ea5a979307d622129b7f25395841a985c64736f6c634300080d0033",
  "immutableReferences": {},
  "source": "pragma solidity >=0.4.25 <0.9.0;\n\ncontract HelloBlockchain {\n    enum StateType { Request }\n\n    StateType public State;\n    address public Requestor;\n    string public RequestMessage;\n\n    // Declare the event\n    event RequestSent(address indexed requestor, string requestMessage, StateType state);\n\n    constructor(string memory message) {\n        Requestor = msg.sender;\n        RequestMessage = message;\n        State = StateType.Request;\n    }\n\n    // Call this function to send a request\n    function SendRequest(string memory requestMessage) public {\n        if (Requestor != msg.sender) {\n            revert();\n        }\n\n        RequestMessage = requestMessage;\n        State = StateType.Request;\n\n        // Emit the event\n        emit RequestSent(msg.sender, requestMessage, State);\n    }\n}\n\n// pragma solidity >=0.4.25 <0.9.0;\n\n// contract HelloBlockchain {\n//     //enum StateType { Request, Respond }\n// \tenum StateType {Request}\n\n//     StateType public  State;\n//     address public  Requestor;\n//     //address public  Responder;\n\n//     string public RequestMessage;\n//     //string public ResponseMessage;\n\n//     constructor(string memory message) {\n//         Requestor = msg.sender;\n//         RequestMessage = message;\n//         State = StateType.Request;\n//     }\n\n//     // call this function to send a request\n//     function SendRequest(string memory requestMessage) public {\n\n//         if (Requestor != msg.sender) {\n//             revert();\n//         }\n\n//         RequestMessage = requestMessage;\n//         State = StateType.Request;\n//     }\n\n    // // call this function to send a response\n    // function SendResponse(string memory responseMessage) public {\n\n    //     Responder = msg.sender;\n    //     ResponseMessage = responseMessage;\n    //     State = StateType.Respond;\n    // }\n//}\n",
  "sourcePath": "/Users/tanya/blockchain-for-42/contracts/HelloBlockchain.sol",
  "compiler": {
    "name": "solc",
    "version": "0.8.13+commit.abaa5c0e.Emscripten.clang"
  },
  "schemaVersion": "3.4.16",
  "updatedAt": "2024-11-26T21:36:41.173Z",
  "networkType": "ethereum",
  "devdoc": {
    "kind": "dev",
    "methods": {},
    "version": 1
  },
  "userdoc": {
    "kind": "user",
    "methods": {},
    "version": 1
  }
}