{
  "contractName": "SimpleStorage",
  "abi": [
    {
      "anonymous": false,
      "inputs": [
        {
          "indexed": false,
          "internalType": "uint256",
          "name": "oldSalary",
          "type": "uint256"
        },
        {
          "indexed": false,
          "internalType": "uint256",
          "name": "newSalary",
          "type": "uint256"
        }
      ],
      "name": "SalaryUpdated",
      "type": "event"
    },
    {
      "inputs": [],
      "name": "Salary",
      "outputs": [
        {
          "internalType": "uint256",
          "name": "",
          "type": "uint256"
        }
      ],
      "stateMutability": "view",
      "type": "function",
      "constant": true
    },
    {
      "inputs": [
        {
          "internalType": "uint256",
          "name": "",
          "type": "uint256"
        }
      ],
      "name": "employees",
      "outputs": [
        {
          "internalType": "uint256",
          "name": "Salary",
          "type": "uint256"
        },
        {
          "internalType": "string",
          "name": "name",
          "type": "string"
        }
      ],
      "stateMutability": "view",
      "type": "function",
      "constant": true
    },
    {
      "inputs": [
        {
          "internalType": "string",
          "name": "",
          "type": "string"
        }
      ],
      "name": "nameToSalary",
      "outputs": [
        {
          "internalType": "uint256",
          "name": "",
          "type": "uint256"
        }
      ],
      "stateMutability": "view",
      "type": "function",
      "constant": true
    },
    {
      "inputs": [
        {
          "internalType": "uint256",
          "name": "_Salary",
          "type": "uint256"
        }
      ],
      "name": "store",
      "outputs": [],
      "stateMutability": "nonpayable",
      "type": "function"
    },
    {
      "inputs": [],
      "name": "retrieve",
      "outputs": [
        {
          "internalType": "uint256",
          "name": "",
          "type": "uint256"
        }
      ],
      "stateMutability": "view",
      "type": "function",
      "constant": true
    },
    {
      "inputs": [
        {
          "internalType": "string",
          "name": "_name",
          "type": "string"
        },
        {
          "internalType": "uint256",
          "name": "_Salary",
          "type": "uint256"
        }
      ],
      "name": "addEmployee",
      "outputs": [],
      "stateMutability": "nonpayable",
      "type": "function"
    }
  ],
  "bytecode": "0x608060405234801561001057600080fd5b50610808806100206000396000f3fe608060405234801561001057600080fd5b50600436106100625760003560e01c80632e64cec1146100675780634739326b146100855780636057361d146100b65780638cdd0da3146100d25780639048a147146100f0578063ffa4204b14610120575b600080fd5b61006f61013c565b60405161007c91906103cb565b60405180910390f35b61009f600480360381019061009a9190610426565b610145565b6040516100ad9291906104ec565b60405180910390f35b6100d060048036038101906100cb9190610426565b610201565b005b6100da61024b565b6040516100e791906103cb565b60405180910390f35b61010a60048036038101906101059190610651565b610251565b60405161011791906103cb565b60405180910390f35b61013a6004803603810190610135919061069a565b61027f565b005b60008054905090565b6001818154811061015557600080fd5b906000526020600020906002020160009150905080600001549080600101805461017e90610725565b80601f01602080910402602001604051908101604052809291908181526020018280546101aa90610725565b80156101f75780601f106101cc576101008083540402835291602001916101f7565b820191906000526020600020905b8154815290600101906020018083116101da57829003601f168201915b5050505050905082565b600080549050816000819055507f513be2fc65a5dac62d6e1b032498d16eefe8bde7d11dff22331597cab2ab23db818360405161023f929190610756565b60405180910390a15050565b60005481565b6002818051602081018201805184825260208301602085012081835280955050505050506000915090505481565b600160405180604001604052808381526020018481525090806001815401808255809150506001900390600052602060002090600202016000909190919091506000820151816000015560208201518160010190805190602001906102e592919061030f565b505050806002836040516102f991906107bb565b9081526020016040518091039020819055505050565b82805461031b90610725565b90600052602060002090601f01602090048101928261033d5760008555610384565b82601f1061035657805160ff1916838001178555610384565b82800160010185558215610384579182015b82811115610383578251825591602001919060010190610368565b5b5090506103919190610395565b5090565b5b808211156103ae576000816000905550600101610396565b5090565b6000819050919050565b6103c5816103b2565b82525050565b60006020820190506103e060008301846103bc565b92915050565b6000604051905090565b600080fd5b600080fd5b610403816103b2565b811461040e57600080fd5b50565b600081359050610420816103fa565b92915050565b60006020828403121561043c5761043b6103f0565b5b600061044a84828501610411565b91505092915050565b600081519050919050565b600082825260208201905092915050565b60005b8381101561048d578082015181840152602081019050610472565b8381111561049c576000848401525b50505050565b6000601f19601f8301169050919050565b60006104be82610453565b6104c8818561045e565b93506104d881856020860161046f565b6104e1816104a2565b840191505092915050565b600060408201905061050160008301856103bc565b818103602083015261051381846104b3565b90509392505050565b600080fd5b600080fd5b7f4e487b7100000000000000000000000000000000000000000000000000000000600052604160045260246000fd5b61055e826104a2565b810181811067ffffffffffffffff8211171561057d5761057c610526565b5b80604052505050565b60006105906103e6565b905061059c8282610555565b919050565b600067ffffffffffffffff8211156105bc576105bb610526565b5b6105c5826104a2565b9050602081019050919050565b82818337600083830152505050565b60006105f46105ef846105a1565b610586565b9050828152602081018484840111156106105761060f610521565b5b61061b8482856105d2565b509392505050565b600082601f8301126106385761063761051c565b5b81356106488482602086016105e1565b91505092915050565b600060208284031215610667576106666103f0565b5b600082013567ffffffffffffffff811115610685576106846103f5565b5b61069184828501610623565b91505092915050565b600080604083850312156106b1576106b06103f0565b5b600083013567ffffffffffffffff8111156106cf576106ce6103f5565b5b6106db85828601610623565b92505060206106ec85828601610411565b9150509250929050565b7f4e487b7100000000000000000000000000000000000000000000000000000000600052602260045260246000fd5b6000600282049050600182168061073d57607f821691505b6020821081036107505761074f6106f6565b5b50919050565b600060408201905061076b60008301856103bc565b61077860208301846103bc565b9392505050565b600081905092915050565b600061079582610453565b61079f818561077f565b93506107af81856020860161046f565b80840191505092915050565b60006107c7828461078a565b91508190509291505056fea26469706673582212204950c11c3a60ca1d563a6bebdf4a776ff576f2efd48b9bd127360bd7972e10c664736f6c634300080d0033",
  "immutableReferences": {},
  "source": "pragma solidity >=0.6.0 <0.9.0;\n\ncontract SimpleStorage {\n    uint256 public Salary;\n\n    // Event to emit when Salary is updated\n    event SalaryUpdated(uint256 oldSalary, uint256 newSalary);\n\n    // Struct definition\n    struct Employee {\n        uint256 Salary;\n        string name;\n    }\n\n    // Array to store employees\n    Employee[] public employees;\n\n    // Mapping from name to salary\n    mapping(string => uint256) public nameToSalary;\n\n    // Function to store a salary\n    function store(uint256 _Salary) public {\n        uint256 oldSalary = Salary; // Store the current Salary value\n        Salary = _Salary; // Update the Salary variable\n        emit SalaryUpdated(oldSalary, _Salary); // Emit the event\n    }\n\n    // Function to retrieve the salary\n    function retrieve() public view returns (uint256) {\n        return Salary;\n    }\n\n    // Function to add employees\n    function addEmployee(string memory _name, uint256 _Salary) public {\n        employees.push(Employee(_Salary, _name));\n        nameToSalary[_name] = _Salary;\n    }\n}\n\n\n// pragma solidity >=0.6.0 <0.9.0;\n\n// contract SimpleStorage {\n//     uint256 public Salary;\n\n//     // This is a comment!\n\n//     struct Employee {\n//         uint256 Salary;\n//         string name;\n//     }\n\n//     Employee[] public employees; // Corrected the array declaration\n//     mapping(string => uint256) public nameToSalary;\n\n//     // Function to store a salary\n//     function store(uint256 _Salary) public {\n//         Salary = _Salary;\n//     }\n\n//     // Function to retrieve the salary\n//     function retrieve() public view returns (uint256) {\n//         return Salary;\n//     }\n\n//     // Function to add employees\n//     function addEmployee(string memory _name, uint256 _Salary) public {\n//         employees.push(Employee(_Salary, _name));\n//         nameToSalary[_name] = _Salary;\n//     }\n// }\n",
  "sourcePath": "/Users/tanya/blockchain-for-42/contracts/SimpleStorage.sol",
  "compiler": {
    "name": "solc",
    "version": "0.8.13+commit.abaa5c0e.Emscripten.clang"
  },
  "schemaVersion": "3.4.16",
  "updatedAt": "2024-11-26T21:36:41.300Z",
  "networkType": "ethereum",
  "devdoc": {
    "kind": "dev",
    "methods": {},
    "version": 1
  },
  "userdoc": {
    "kind": "user",
    "methods": {},
    "version": 1
  }
}