{
  "contractName": "WinnerStorage",
  "abi": [
    {
      "anonymous": false,
      "inputs": [
        {
          "indexed": false,
          "internalType": "uint256",
          "name": "oldscore",
          "type": "uint256"
        },
        {
          "indexed": false,
          "internalType": "uint256",
          "name": "newscore",
          "type": "uint256"
        }
      ],
      "name": "scoreUpdated",
      "type": "event"
    },
    {
      "anonymous": false,
      "inputs": [],
      "name": "userAdded",
      "type": "event"
    },
    {
      "inputs": [
        {
          "internalType": "string",
          "name": "",
          "type": "string"
        }
      ],
      "name": "nameToScore",
      "outputs": [
        {
          "internalType": "uint256",
          "name": "",
          "type": "uint256"
        }
      ],
      "stateMutability": "view",
      "type": "function",
      "constant": true
    },
    {
      "inputs": [
        {
          "internalType": "string",
          "name": "",
          "type": "string"
        }
      ],
      "name": "nameToStatus",
      "outputs": [
        {
          "internalType": "bool",
          "name": "",
          "type": "bool"
        }
      ],
      "stateMutability": "view",
      "type": "function",
      "constant": true
    },
    {
      "inputs": [],
      "name": "score",
      "outputs": [
        {
          "internalType": "uint256",
          "name": "",
          "type": "uint256"
        }
      ],
      "stateMutability": "view",
      "type": "function",
      "constant": true
    },
    {
      "inputs": [
        {
          "internalType": "uint256",
          "name": "",
          "type": "uint256"
        }
      ],
      "name": "users",
      "outputs": [
        {
          "internalType": "uint256",
          "name": "score",
          "type": "uint256"
        },
        {
          "internalType": "string",
          "name": "name",
          "type": "string"
        },
        {
          "internalType": "bool",
          "name": "winner",
          "type": "bool"
        }
      ],
      "stateMutability": "view",
      "type": "function",
      "constant": true
    },
    {
      "inputs": [
        {
          "internalType": "uint256",
          "name": "_score",
          "type": "uint256"
        }
      ],
      "name": "storeScore",
      "outputs": [],
      "stateMutability": "nonpayable",
      "type": "function"
    },
    {
      "inputs": [],
      "name": "retrieve",
      "outputs": [
        {
          "internalType": "uint256",
          "name": "",
          "type": "uint256"
        }
      ],
      "stateMutability": "view",
      "type": "function",
      "constant": true
    },
    {
      "inputs": [
        {
          "internalType": "string",
          "name": "_name",
          "type": "string"
        },
        {
          "internalType": "uint256",
          "name": "_score",
          "type": "uint256"
        },
        {
          "internalType": "bool",
          "name": "_winner",
          "type": "bool"
        }
      ],
      "name": "addUser",
      "outputs": [],
      "stateMutability": "nonpayable",
      "type": "function"
    }
  ],
  "bytecode": "0x608060405234801561001057600080fd5b506109ab806100206000396000f3fe608060405234801561001057600080fd5b506004361061007d5760003560e01c8063a0ace7871161005b578063a0ace78714610102578063b280586a1461011e578063e6c8d1441461014e578063efedc6691461016a5761007d565b80630296926b146100825780632e64cec1146100b2578063365b98b2146100d0575b600080fd5b61009c6004803603810190610097919061062c565b610188565b6040516100a9919061068e565b60405180910390f35b6100ba6101b6565b6040516100c7919061068e565b60405180910390f35b6100ea60048036038101906100e591906106d5565b6101bf565b6040516100f9939291906107a5565b60405180910390f35b61011c600480360381019061011791906106d5565b61028e565b005b6101386004803603810190610133919061062c565b6102d8565b60405161014591906107e3565b60405180910390f35b6101686004803603810190610163919061082a565b61030e565b005b610172610429565b60405161017f919061068e565b60405180910390f35b6002818051602081018201805184825260208301602085012081835280955050505050506000915090505481565b60008054905090565b600181815481106101cf57600080fd5b90600052602060002090600302016000915090508060000154908060010180546101f8906108c8565b80601f0160208091040260200160405190810160405280929190818152602001828054610224906108c8565b80156102715780601f1061024657610100808354040283529160200191610271565b820191906000526020600020905b81548152906001019060200180831161025457829003601f168201915b5050505050908060020160009054906101000a900460ff16905083565b600080549050816000819055507f872609d028abb24e8ff04516c3afd23b666803091284b2d1ac5b74a5703289ad81836040516102cc9291906108f9565b60405180910390a15050565b6003818051602081018201805184825260208301602085012081835280955050505050506000915054906101000a900460ff1681565b60016040518060600160405280848152602001858152602001831515815250908060018154018082558091505060019003906000526020600020906003020160009091909190915060008201518160000155602082015181600101908051906020019061037c92919061042f565b5060408201518160020160006101000a81548160ff0219169083151502179055505050816002846040516103b0919061095e565b908152602001604051809103902081905550806003846040516103d3919061095e565b908152602001604051809103902060006101000a81548160ff0219169083151502179055507f8bc966779fc5fb6ed74962f384efff6bcab7d4da933fdb486a035c869411773f60405160405180910390a1505050565b60005481565b82805461043b906108c8565b90600052602060002090601f01602090048101928261045d57600085556104a4565b82601f1061047657805160ff19168380011785556104a4565b828001600101855582156104a4579182015b828111156104a3578251825591602001919060010190610488565b5b5090506104b191906104b5565b5090565b5b808211156104ce5760008160009055506001016104b6565b5090565b6000604051905090565b600080fd5b600080fd5b600080fd5b600080fd5b6000601f19601f8301169050919050565b7f4e487b7100000000000000000000000000000000000000000000000000000000600052604160045260246000fd5b610539826104f0565b810181811067ffffffffffffffff8211171561055857610557610501565b5b80604052505050565b600061056b6104d2565b90506105778282610530565b919050565b600067ffffffffffffffff82111561059757610596610501565b5b6105a0826104f0565b9050602081019050919050565b82818337600083830152505050565b60006105cf6105ca8461057c565b610561565b9050828152602081018484840111156105eb576105ea6104eb565b5b6105f68482856105ad565b509392505050565b600082601f830112610613576106126104e6565b5b81356106238482602086016105bc565b91505092915050565b600060208284031215610642576106416104dc565b5b600082013567ffffffffffffffff8111156106605761065f6104e1565b5b61066c848285016105fe565b91505092915050565b6000819050919050565b61068881610675565b82525050565b60006020820190506106a3600083018461067f565b92915050565b6106b281610675565b81146106bd57600080fd5b50565b6000813590506106cf816106a9565b92915050565b6000602082840312156106eb576106ea6104dc565b5b60006106f9848285016106c0565b91505092915050565b600081519050919050565b600082825260208201905092915050565b60005b8381101561073c578082015181840152602081019050610721565b8381111561074b576000848401525b50505050565b600061075c82610702565b610766818561070d565b935061077681856020860161071e565b61077f816104f0565b840191505092915050565b60008115159050919050565b61079f8161078a565b82525050565b60006060820190506107ba600083018661067f565b81810360208301526107cc8185610751565b90506107db6040830184610796565b949350505050565b60006020820190506107f86000830184610796565b92915050565b6108078161078a565b811461081257600080fd5b50565b600081359050610824816107fe565b92915050565b600080600060608486031215610843576108426104dc565b5b600084013567ffffffffffffffff811115610861576108606104e1565b5b61086d868287016105fe565b935050602061087e868287016106c0565b925050604061088f86828701610815565b9150509250925092565b7f4e487b7100000000000000000000000000000000000000000000000000000000600052602260045260246000fd5b600060028204905060018216806108e057607f821691505b6020821081036108f3576108f2610899565b5b50919050565b600060408201905061090e600083018561067f565b61091b602083018461067f565b9392505050565b600081905092915050565b600061093882610702565b6109428185610922565b935061095281856020860161071e565b80840191505092915050565b600061096a828461092d565b91508190509291505056fea264697066735822122080509780a94f9097944aadad4096b06b91bb50e0c72df273a57fd1de10af7b1964736f6c634300080d0033",
  "immutableReferences": {},
  "source": "pragma solidity >=0.6.0 <0.9.0;\n\ncontract WinnerStorage {\n    uint256 public score;\n\n    // Event to emit when score is updated\n    event scoreUpdated(uint256 oldscore, uint256 newscore);\n\t// Event to emit when user is added\n\tevent userAdded();\n\n\t//Struct definition\n\tstruct User {\n\t\tuint256 score;\n\t\tstring\tname;\n\t\tbool\twinner;\n\t}\n\n\t//Array to store users\n\tUser[] public users;\n\n\t//Mapping from name to score\n\tmapping(string => uint256) public nameToScore;\n\n\t//Maping from name to status\n\tmapping(string => bool) public nameToStatus;\n\n    // Function to store a score\n    function storeScore(uint256 _score) public {\n        uint256 oldscore = score; // Store the current score value\n        score = _score; // Update the score variable\n        emit scoreUpdated(oldscore, _score); // Emit the event\n    }\n\n    // Function to retrieve the score\n    function retrieve() public view returns (uint256) {\n        return score;\n    }\n\n\t// Function to add users\n\tfunction addUser(string memory _name, uint256 _score, bool _winner) public {\n\t\tusers.push(User(_score, _name, _winner));\n\t\tnameToScore[_name] = _score;\n\t\tnameToStatus[_name] = _winner;\n\t\temit userAdded();\n\t}\n\n\t//Function to update winner status\n\n}",
  "sourcePath": "/Users/tanya/blockchain-for-42/contracts/WinnerStorage.sol",
  "compiler": {
    "name": "solc",
    "version": "0.8.13+commit.abaa5c0e.Emscripten.clang"
  },
  "schemaVersion": "3.4.16",
  "updatedAt": "2024-11-26T21:36:41.450Z",
  "networkType": "ethereum",
  "devdoc": {
    "kind": "dev",
    "methods": {},
    "version": 1
  },
  "userdoc": {
    "kind": "user",
    "methods": {},
    "version": 1
  }
}