{
  "contractName": "WinnerStorage",
  "abi": [
    {
      "anonymous": false,
      "inputs": [
        {
          "indexed": false,
          "internalType": "uint256",
          "name": "oldscore",
          "type": "uint256"
        },
        {
          "indexed": false,
          "internalType": "uint256",
          "name": "newscore",
          "type": "uint256"
        }
      ],
      "name": "scoreUpdated",
      "type": "event"
    },
    {
      "anonymous": false,
      "inputs": [],
      "name": "userAdded",
      "type": "event"
    },
    {
      "inputs": [
        {
          "internalType": "string",
          "name": "",
          "type": "string"
        }
      ],
      "name": "nameToScore",
      "outputs": [
        {
          "internalType": "uint256",
          "name": "",
          "type": "uint256"
        }
      ],
      "stateMutability": "view",
      "type": "function",
      "constant": true
    },
    {
      "inputs": [
        {
          "internalType": "string",
          "name": "",
          "type": "string"
        }
      ],
      "name": "nameToStatus",
      "outputs": [
        {
          "internalType": "bool",
          "name": "",
          "type": "bool"
        }
      ],
      "stateMutability": "view",
      "type": "function",
      "constant": true
    },
    {
      "inputs": [],
      "name": "score",
      "outputs": [
        {
          "internalType": "uint256",
          "name": "",
          "type": "uint256"
        }
      ],
      "stateMutability": "view",
      "type": "function",
      "constant": true
    },
    {
      "inputs": [
        {
          "internalType": "uint256",
          "name": "",
          "type": "uint256"
        }
      ],
      "name": "users",
      "outputs": [
        {
          "internalType": "uint256",
          "name": "score",
          "type": "uint256"
        },
        {
          "internalType": "string",
          "name": "name",
          "type": "string"
        },
        {
          "internalType": "bool",
          "name": "winner",
          "type": "bool"
        }
      ],
      "stateMutability": "view",
      "type": "function",
      "constant": true
    },
    {
      "inputs": [],
      "name": "retrieve",
      "outputs": [
        {
          "internalType": "uint256",
          "name": "",
          "type": "uint256"
        }
      ],
      "stateMutability": "view",
      "type": "function",
      "constant": true
    },
    {
      "inputs": [
        {
          "internalType": "string",
          "name": "_name",
          "type": "string"
        },
        {
          "internalType": "uint256",
          "name": "_score",
          "type": "uint256"
        },
        {
          "internalType": "bool",
          "name": "_winner",
          "type": "bool"
        }
      ],
      "name": "addUser",
      "outputs": [],
      "stateMutability": "nonpayable",
      "type": "function"
    },
    {
      "inputs": [
        {
          "internalType": "string",
          "name": "_name",
          "type": "string"
        },
        {
          "internalType": "uint256",
          "name": "_score",
          "type": "uint256"
        }
      ],
      "name": "storeScore",
      "outputs": [],
      "stateMutability": "nonpayable",
      "type": "function"
    }
  ],
  "bytecode": "0x608060405234801561001057600080fd5b50610abf806100206000396000f3fe608060405234801561001057600080fd5b506004361061007d5760003560e01c8063b280586a1161005b578063b280586a14610102578063e6c8d14414610132578063ee8c32a01461014e578063efedc6691461016a5761007d565b80630296926b146100825780632e64cec1146100b2578063365b98b2146100d0575b600080fd5b61009c6004803603810190610097919061065f565b610188565b6040516100a991906106c1565b60405180910390f35b6100ba6101b6565b6040516100c791906106c1565b60405180910390f35b6100ea60048036038101906100e59190610708565b6101bf565b6040516100f9939291906107d8565b60405180910390f35b61011c6004803603810190610117919061065f565b61028e565b6040516101299190610816565b60405180910390f35b61014c6004803603810190610147919061085d565b6102c4565b005b610168600480360381019061016391906108cc565b6103df565b005b61017261045c565b60405161017f91906106c1565b60405180910390f35b6002818051602081018201805184825260208301602085012081835280955050505050506000915090505481565b60008054905090565b600181815481106101cf57600080fd5b90600052602060002090600302016000915090508060000154908060010180546101f890610957565b80601f016020809104026020016040519081016040528092919081815260200182805461022490610957565b80156102715780601f1061024657610100808354040283529160200191610271565b820191906000526020600020905b81548152906001019060200180831161025457829003601f168201915b5050505050908060020160009054906101000a900460ff16905083565b6003818051602081018201805184825260208301602085012081835280955050505050506000915054906101000a900460ff1681565b600160405180606001604052808481526020018581526020018315158152509080600181540180825580915050600190039060005260206000209060030201600090919091909150600082015181600001556020820151816001019080519060200190610332929190610462565b5060408201518160020160006101000a81548160ff02191690831515021790555050508160028460405161036691906109c4565b9081526020016040518091039020819055508060038460405161038991906109c4565b908152602001604051809103902060006101000a81548160ff0219169083151502179055507f8bc966779fc5fb6ed74962f384efff6bcab7d4da933fdb486a035c869411773f60405160405180910390a1505050565b60008054905081816103f19190610a0a565b60008190555060005460028460405161040a91906109c4565b9081526020016040518091039020819055507f872609d028abb24e8ff04516c3afd23b666803091284b2d1ac5b74a5703289ad8160005460405161044f929190610a60565b60405180910390a1505050565b60005481565b82805461046e90610957565b90600052602060002090601f01602090048101928261049057600085556104d7565b82601f106104a957805160ff19168380011785556104d7565b828001600101855582156104d7579182015b828111156104d65782518255916020019190600101906104bb565b5b5090506104e491906104e8565b5090565b5b808211156105015760008160009055506001016104e9565b5090565b6000604051905090565b600080fd5b600080fd5b600080fd5b600080fd5b6000601f19601f8301169050919050565b7f4e487b7100000000000000000000000000000000000000000000000000000000600052604160045260246000fd5b61056c82610523565b810181811067ffffffffffffffff8211171561058b5761058a610534565b5b80604052505050565b600061059e610505565b90506105aa8282610563565b919050565b600067ffffffffffffffff8211156105ca576105c9610534565b5b6105d382610523565b9050602081019050919050565b82818337600083830152505050565b60006106026105fd846105af565b610594565b90508281526020810184848401111561061e5761061d61051e565b5b6106298482856105e0565b509392505050565b600082601f83011261064657610645610519565b5b81356106568482602086016105ef565b91505092915050565b6000602082840312156106755761067461050f565b5b600082013567ffffffffffffffff81111561069357610692610514565b5b61069f84828501610631565b91505092915050565b6000819050919050565b6106bb816106a8565b82525050565b60006020820190506106d660008301846106b2565b92915050565b6106e5816106a8565b81146106f057600080fd5b50565b600081359050610702816106dc565b92915050565b60006020828403121561071e5761071d61050f565b5b600061072c848285016106f3565b91505092915050565b600081519050919050565b600082825260208201905092915050565b60005b8381101561076f578082015181840152602081019050610754565b8381111561077e576000848401525b50505050565b600061078f82610735565b6107998185610740565b93506107a9818560208601610751565b6107b281610523565b840191505092915050565b60008115159050919050565b6107d2816107bd565b82525050565b60006060820190506107ed60008301866106b2565b81810360208301526107ff8185610784565b905061080e60408301846107c9565b949350505050565b600060208201905061082b60008301846107c9565b92915050565b61083a816107bd565b811461084557600080fd5b50565b60008135905061085781610831565b92915050565b6000806000606084860312156108765761087561050f565b5b600084013567ffffffffffffffff81111561089457610893610514565b5b6108a086828701610631565b93505060206108b1868287016106f3565b92505060406108c286828701610848565b9150509250925092565b600080604083850312156108e3576108e261050f565b5b600083013567ffffffffffffffff81111561090157610900610514565b5b61090d85828601610631565b925050602061091e858286016106f3565b9150509250929050565b7f4e487b7100000000000000000000000000000000000000000000000000000000600052602260045260246000fd5b6000600282049050600182168061096f57607f821691505b60208210810361098257610981610928565b5b50919050565b600081905092915050565b600061099e82610735565b6109a88185610988565b93506109b8818560208601610751565b80840191505092915050565b60006109d08284610993565b915081905092915050565b7f4e487b7100000000000000000000000000000000000000000000000000000000600052601160045260246000fd5b6000610a15826106a8565b9150610a20836106a8565b9250827fffffffffffffffffffffffffffffffffffffffffffffffffffffffffffffffff03821115610a5557610a546109db565b5b828201905092915050565b6000604082019050610a7560008301856106b2565b610a8260208301846106b2565b939250505056fea2646970667358221220428fcc4a06d9507fc2ba11249946069520777b5ff2511ae2f52b9cfbd606d8c864736f6c634300080d0033",
  "immutableReferences": {},
  "source": "pragma solidity >=0.6.0 <0.9.0;\n\ncontract WinnerStorage {\n    uint256 public score;\n\n    // Event to emit when score is updated\n    event scoreUpdated(uint256 oldscore, uint256 newscore);\n\t// Event to emit when user is added\n\tevent userAdded();\n\n\t//Struct definition\n\tstruct User {\n\t\tuint256 score;\n\t\tstring\tname;\n\t\tbool\twinner;\n\t}\n\n\t//Array to store users\n\tUser[] public users;\n\n\t//Mapping from name to score\n\tmapping(string => uint256) public nameToScore;\n\n\t//Maping from name to status\n\tmapping(string => bool) public nameToStatus;\n\n    // Function to retrieve the score\n    function retrieve() public view returns (uint256) {\n        return score;\n    }\n\n\t// Function to add users\n\tfunction addUser(string memory _name, uint256 _score, bool _winner) public {\n\t\tusers.push(User(_score, _name, _winner));\n\t\tnameToScore[_name] = _score;\n\t\tnameToStatus[_name] = _winner;\n\t\temit userAdded();\n\t}\n\n\t    // Function to store a score\n    function storeScore(string memory _name, uint256 _score) public {\n        uint256 oldscore = score; // Store the current score value\n        score = oldscore + _score; // Update the score variable\n\t\tnameToScore[_name] = score;\n        emit scoreUpdated(oldscore, score); // Emit the event\n    }\n\n\t//Function to update winner status\n\n}",
  "sourcePath": "/Users/tanya/blockchain-for-42/transcendence/ft_transcendence/transcendence/blockchain/contracts/WinnerStorage.sol",
  "compiler": {
    "name": "solc",
    "version": "0.8.13+commit.abaa5c0e.Emscripten.clang"
  },
  "schemaVersion": "3.4.16",
  "updatedAt": "2024-12-11T21:57:24.964Z",
  "networkType": "ethereum",
  "devdoc": {
    "kind": "dev",
    "methods": {},
    "version": 1
  },
  "userdoc": {
    "kind": "user",
    "methods": {},
    "version": 1
  }
}